{
  "contractName": "NameReg",
  "abi": [
    {
      "inputs": [],
      "payable": false,
      "stateMutability": "nonpayable",
      "type": "constructor"
    },
    {
      "anonymous": false,
      "inputs": [
        {
          "indexed": false,
          "internalType": "bytes32",
          "name": "name",
          "type": "bytes32"
        }
      ],
      "name": "NameCanceled",
      "type": "event"
    },
    {
      "anonymous": false,
      "inputs": [
        {
          "indexed": false,
          "internalType": "address",
          "name": "voter",
          "type": "address"
        },
        {
          "indexed": false,
          "internalType": "bytes32",
          "name": "name",
          "type": "bytes32"
        },
        {
          "indexed": false,
          "internalType": "uint256",
          "name": "expiry_block_number",
          "type": "uint256"
        }
      ],
      "name": "NameRegistered",
      "type": "event"
    },
    {
      "anonymous": false,
      "inputs": [
        {
          "indexed": false,
          "internalType": "address",
          "name": "voter",
          "type": "address"
        },
        {
          "indexed": false,
          "internalType": "bytes32",
          "name": "name",
          "type": "bytes32"
        },
        {
          "indexed": false,
          "internalType": "uint256",
          "name": "expiry_block_number",
          "type": "uint256"
        }
      ],
      "name": "NameRenewed",
      "type": "event"
    },
    {
      "constant": false,
      "inputs": [
        {
          "internalType": "bytes32",
          "name": "_name",
          "type": "bytes32"
        },
        {
          "internalType": "uint256",
          "name": "_numBlocks",
          "type": "uint256"
        }
      ],
      "name": "register",
      "outputs": [],
      "payable": true,
      "stateMutability": "payable",
      "type": "function"
    },
    {
      "constant": false,
      "inputs": [
        {
          "internalType": "bytes32",
          "name": "_name",
          "type": "bytes32"
        },
        {
          "internalType": "uint256",
          "name": "_numBlocks",
          "type": "uint256"
        }
      ],
      "name": "renew",
      "outputs": [],
      "payable": false,
      "stateMutability": "nonpayable",
      "type": "function"
    },
    {
      "constant": false,
      "inputs": [
        {
          "internalType": "bytes32",
          "name": "_name",
          "type": "bytes32"
        }
      ],
      "name": "cancel",
      "outputs": [],
      "payable": false,
      "stateMutability": "nonpayable",
      "type": "function"
    },
    {
      "constant": true,
      "inputs": [],
      "name": "getAllNames",
      "outputs": [
        {
          "components": [
            {
              "internalType": "uint256",
              "name": "expiry_block_number",
              "type": "uint256"
            },
            {
              "internalType": "address",
              "name": "account",
              "type": "address"
            },
            {
              "internalType": "bytes32",
              "name": "name",
              "type": "bytes32"
            }
          ],
          "internalType": "struct NameReg.NameRegStruct[]",
          "name": "",
          "type": "tuple[]"
        }
      ],
      "payable": false,
      "stateMutability": "view",
      "type": "function"
    },
    {
      "constant": true,
      "inputs": [
        {
          "internalType": "uint256",
          "name": "_numBlocks",
          "type": "uint256"
        }
      ],
      "name": "getReservationFee",
      "outputs": [
        {
          "internalType": "uint256",
          "name": "",
          "type": "uint256"
        }
      ],
      "payable": false,
      "stateMutability": "view",
      "type": "function"
    }
  ],
  "bytecode": "0x608060405234801561001057600080fd5b50600a6002556107e5806100256000396000f3fe60806040526004361061004a5760003560e01c8063c4d252f51461004f578063eda963ea14610071578063f544d82f146100a7578063fb825e5f146100c7578063ff3617f8146100e9575b600080fd5b34801561005b57600080fd5b5061006f61006a36600461058b565b6100fc565b005b34801561007d57600080fd5b5061009161008c36600461058b565b6101c8565b60405161009e919061072f565b60405180910390f35b3480156100b357600080fd5b5061006f6100c23660046105b1565b6101d3565b3480156100d357600080fd5b506100dc61028b565b60405161009e9190610717565b61006f6100f73660046105b1565b610391565b6000818152602081905260409020600101546001600160a01b0316331461012257600080fd5b600061012d8261046c565b905060001981136101595760405162461bcd60e51b81526004016101509061073d565b60405180910390fd5b610162816104b2565b506000828152602081905260408082208281556001810180546001600160a01b031916905560020191909155517f1f4c02a6e2c3648ca0ee5110c6103ea69945d80312ee5de436842924af700b85906101bc90849061072f565b60405180910390a15050565b60025481025b919050565b6000828152602081905260409020600101546001600160a01b031633146101f957600080fd5b4380820190811115610218575060008281526020819052604090205481015b600083815260208190526040908190208281556001810180546001600160a01b0319163390811790915560028201869055915190917f34eaf2d2256d979762ccb9c8a934efb2ae22152848222b1cfcaf9b8c56ba3a009161027d9190879086906106ef565b60405180910390a150505050565b6060806001805490506040519080825280602002602001820160405280156102cd57816020015b6102ba61055a565b8152602001906001900390816102b25790505b50905060005b60015481101561038b576000806000600184815481106102ef57fe5b90600052602060002001548152602001908152602001600020600001541115610383576000806001838154811061032257fe5b60009182526020808320909101548352828101939093526040918201902081516060810183528154815260018201546001600160a01b0316938101939093526002015490820152825183908390811061037757fe5b60200260200101819052505b6001016102d3565b50905090565b60008281526020819052604090205415806103b9575060008281526020819052604090205443115b6103c257600080fd5b60025481023410156103d357600080fd5b600082815260208190526040808220438401808255600180830180546001600160a01b031916339081179091556002840188905581548083018355919095527fb10e2d527612073b26eecdfd717e6a320cf44b4afac2b0732d9fcbe2b7fa0cf6018690559151919290917fe6a5d01fa9329c4d517e4311306e601e121d5cf6f4b214a4986bdd8714002e329161027d91879086906106ef565b6000805b6001548110156104a857826001828154811061048857fe5b906000526020600020015414156104a05790506101ce565b600101610470565b5060001992915050565b60015460009082106104c6575060016101ce565b815b6001546000190181101561051257600181600101815481106104e657fe5b9060005260206000200154600182815481106104fe57fe5b6000918252602090912001556001016104c8565b5060018054600019810190811061052557fe5b6000918252602082200155600180548061053b57fe5b6001900381819060005260206000200160009055905560019050919050565b604080516060810182526000808252602082018190529181019190915290565b80356105858161078b565b92915050565b60006020828403121561059d57600080fd5b60006105a9848461057a565b949350505050565b600080604083850312156105c457600080fd5b60006105d0858561057a565b92505060206105e18582860161057a565b9150509250929050565b60006105f783836106b2565b505060600190565b6106088161077a565b82525050565b61060881610760565b600061062282610753565b61062c8185610757565b93506106378361074d565b8060005b8381101561066557815161064f88826105eb565b975061065a8361074d565b92505060010161063b565b509495945050505050565b6106088161076b565b6000610686601783610757565b7f4e616d65206e6f7420666f756e6420696e206172726179000000000000000000815260200192915050565b805160608301906106c38482610670565b5060208201516106d6602085018261060e565b5060408201516106e96040850182610670565b50505050565b606081016106fd82866105ff565b61070a6020830185610670565b6105a96040830184610670565b602080825281016107288184610617565b9392505050565b602081016105858284610670565b6020808252810161058581610679565b60200190565b5190565b90815260200190565b60006105858261076e565b90565b6001600160a01b031690565b600061058582600061058582610760565b6107948161076b565b811461079f57600080fd5b5056fea365627a7a72315820090f05a1e1cdc8d6ee06a69827d164db425f3ceacecd43cf5797d8c8043fdd786c6578706572696d656e74616cf564736f6c63430005100040",
  "source": "// SPDX-License-Identifier: GPL-3.0\n \npragma solidity >=0.4.22 <0.8.0;\npragma experimental ABIEncoderV2;\n/**\n * @title NameReg\n * @dev Name Registration contract to place a name against address for nameFee * numBlocks fee reservation.\n */\ncontract NameReg {\n    struct NameRegStruct {\n        uint expiry_block_number;\n        address account;\n        bytes32 name;\n    }\n    mapping(bytes32 => NameRegStruct) names;\n    bytes32[] nameArray;\n    uint nameFeePerBlock;\n    event NameRegistered(address voter, bytes32 name, uint expiry_block_number);\n    event NameRenewed(address voter, bytes32 name, uint expiry_block_number);\n    event NameCanceled(bytes32 name);\n    constructor() public {\n        // Make the deployer of the contract the administrator\n        nameFeePerBlock = 10;\n    }\n    /**\n     * @dev Register name for numBlocks with a nameFee * numBlocks fee.\n     * @param _name name to attach to address.\n     * @param _numBlocks Number of blocks for which name should be freezed.\n     */\n    function register(bytes32 _name, uint _numBlocks) public payable {\n         // Add a check to see if name is available.\n         // Solidity has no concept of null.\n         // every integer starts as 0, every string starts a \"\", every array starts as []\n         require(names[_name].expiry_block_number == 0 || names[_name].expiry_block_number < block.number);\n         require(msg.value >= _numBlocks * nameFeePerBlock);\n         uint expiry_block_number = block.number + _numBlocks;\n         NameRegStruct storage new_name = names[_name];\n         new_name.expiry_block_number = expiry_block_number;\n         new_name.account = msg.sender;\n         new_name.name = _name;\n         // TO help in getting entire name list.\n         nameArray.push(_name);\n         emit NameRegistered(msg.sender, _name, expiry_block_number);\n    }\n    /**\n     * @dev Renew/Extend name for numBlocks with a nameFee * numBlocks fee for the sender.\n     * @param _name name to attach to address.\n     * @param _numBlocks Number of blocks for which name should be freezed.\n     */\n    function renew(bytes32 _name, uint _numBlocks) public  {\n        // Check if name belongs to sender\n        require(names[_name].account == msg.sender);\n        uint expiry_block_number = block.number + _numBlocks;\n        if (block.number < expiry_block_number) {\n            expiry_block_number = names[_name].expiry_block_number + _numBlocks;\n        }\n        NameRegStruct storage new_name = names[_name];\n        new_name.expiry_block_number = expiry_block_number;\n        new_name.account = msg.sender;\n        new_name.name = _name;\n        emit NameRenewed(msg.sender, _name, expiry_block_number);\n    }\n    /**\n     * @dev Cancel the ownership of name.\n     * @param _name name which needs to be canceled\n     */\n    function cancel(bytes32 _name) public {\n        require(names[_name].account == msg.sender);\n        int index = getNameIndex(_name);\n        require(index > -1, 'Name not found in array');\n        removeInOrder(uint(index));\n        delete names[_name];\n        emit NameCanceled(_name);\n    }\n    /**\n     * @dev Returns array of name details.\n     */\n    function getAllNames() public view returns (NameRegStruct[] memory){\n        NameRegStruct[] memory ret = new NameRegStruct[](nameArray.length);\n        for (uint i = 0; i < nameArray.length; i++) {\n            if(names[nameArray[i]].expiry_block_number > 0) {\n                ret[i] = names[nameArray[i]];\n            }\n        }\n        return ret;\n    }\n    \n    function getReservationFee(uint _numBlocks) public view returns (uint){\n        return nameFeePerBlock * _numBlocks;\n    } \n    function getNameIndex(bytes32 data) view internal returns (int){\n        for (uint i = 0; i < nameArray.length; i++) {\n            if(nameArray[i] == data) {\n                return int(i);\n            }\n        }\n        return -1;\n    }\n    function removeInOrder(uint index) internal returns(bytes32[] storage) {\n        if (index >= nameArray.length) return nameArray;\n\n        for (uint i = index; i<nameArray.length-1; i++){\n            nameArray[i] = nameArray[i+1];\n        }\n        delete nameArray[nameArray.length-1];\n        nameArray.pop();\n        return nameArray;\n    }\n}",
  "sourcePath": "/Users/squbix/Desktop/OpenSource/eth-sample/contracts/NameReg.sol",
  "compiler": {
    "name": "solc",
    "version": "0.5.16+commit.9c3226ce.Emscripten.clang"
  },
  "schemaVersion": "3.3.3",
  "updatedAt": "2021-01-23T15:35:24.466Z",
  "networkType": "ethereum",
  "devdoc": {
    "details": "Name Registration contract to place a name against address for nameFee * numBlocks fee reservation.",
    "methods": {
      "cancel(bytes32)": {
        "details": "Cancel the ownership of name.",
        "params": {
          "_name": "name which needs to be canceled"
        }
      },
      "getAllNames()": {
        "details": "Returns array of name details."
      },
      "register(bytes32,uint256)": {
        "details": "Register name for numBlocks with a nameFee * numBlocks fee.",
        "params": {
          "_name": "name to attach to address.",
          "_numBlocks": "Number of blocks for which name should be freezed."
        }
      },
      "renew(bytes32,uint256)": {
        "details": "Renew/Extend name for numBlocks with a nameFee * numBlocks fee for the sender.",
        "params": {
          "_name": "name to attach to address.",
          "_numBlocks": "Number of blocks for which name should be freezed."
        }
      }
    },
    "title": "NameReg"
  },
  "userdoc": {
    "methods": {}
  }
}