{
  "contractName": "NameReg",
  "abi": [
    {
      "inputs": [],
      "payable": false,
      "stateMutability": "nonpayable",
      "type": "constructor"
    },
    {
      "anonymous": false,
      "inputs": [
        {
          "indexed": false,
          "internalType": "address",
          "name": "voter",
          "type": "address"
        },
        {
          "indexed": false,
          "internalType": "bytes32",
          "name": "name",
          "type": "bytes32"
        },
        {
          "indexed": false,
          "internalType": "uint256",
          "name": "expiry_block_number",
          "type": "uint256"
        }
      ],
      "name": "NameRegistered",
      "type": "event"
    },
    {
      "anonymous": false,
      "inputs": [
        {
          "indexed": false,
          "internalType": "address",
          "name": "voter",
          "type": "address"
        },
        {
          "indexed": false,
          "internalType": "bytes32",
          "name": "name",
          "type": "bytes32"
        },
        {
          "indexed": false,
          "internalType": "uint256",
          "name": "expiry_block_number",
          "type": "uint256"
        }
      ],
      "name": "NameRenewed",
      "type": "event"
    },
    {
      "constant": true,
      "inputs": [
        {
          "internalType": "bytes32",
          "name": "",
          "type": "bytes32"
        }
      ],
      "name": "names",
      "outputs": [
        {
          "internalType": "uint256",
          "name": "expiry_block_number",
          "type": "uint256"
        },
        {
          "internalType": "address",
          "name": "account",
          "type": "address"
        }
      ],
      "payable": false,
      "stateMutability": "view",
      "type": "function"
    },
    {
      "constant": false,
      "inputs": [
        {
          "internalType": "bytes32",
          "name": "_name",
          "type": "bytes32"
        },
        {
          "internalType": "uint256",
          "name": "_numBlocks",
          "type": "uint256"
        }
      ],
      "name": "register",
      "outputs": [],
      "payable": false,
      "stateMutability": "nonpayable",
      "type": "function"
    },
    {
      "constant": false,
      "inputs": [
        {
          "internalType": "bytes32",
          "name": "_name",
          "type": "bytes32"
        },
        {
          "internalType": "uint256",
          "name": "_numBlocks",
          "type": "uint256"
        }
      ],
      "name": "renew",
      "outputs": [],
      "payable": false,
      "stateMutability": "nonpayable",
      "type": "function"
    },
    {
      "constant": false,
      "inputs": [
        {
          "internalType": "bytes32",
          "name": "_name",
          "type": "bytes32"
        }
      ],
      "name": "cancel",
      "outputs": [],
      "payable": false,
      "stateMutability": "nonpayable",
      "type": "function"
    },
    {
      "constant": true,
      "inputs": [
        {
          "internalType": "bytes32",
          "name": "_name",
          "type": "bytes32"
        }
      ],
      "name": "getData",
      "outputs": [
        {
          "internalType": "uint256",
          "name": "",
          "type": "uint256"
        },
        {
          "internalType": "address",
          "name": "",
          "type": "address"
        }
      ],
      "payable": false,
      "stateMutability": "view",
      "type": "function"
    }
  ],
  "bytecode": "0x608060405234801561001057600080fd5b50600a6001556102ad806100256000396000f3fe608060405234801561001057600080fd5b50600436106100575760003560e01c806320c38e2b1461005c57806354f6127f1461009a578063c4d252f5146100b7578063f544d82f146100d6578063ff3617f8146100f9575b600080fd5b6100796004803603602081101561007257600080fd5b503561011c565b604080519283526001600160a01b0390911660208301528051918290030190f35b610079600480360360208110156100b057600080fd5b503561013e565b6100d4600480360360208110156100cd57600080fd5b5035610162565b005b6100d4600480360360408110156100ec57600080fd5b50803590602001356101ae565b6100d46004803603604081101561010f57600080fd5b5080359060200135610247565b600060208190529081526040902080546001909101546001600160a01b031682565b600081815260208190526040902080546001909101546001600160a01b0316915091565b6000818152602081905260409020600101546001600160a01b0316331461018857600080fd5b600090815260208190526040812090815560010180546001600160a01b03191633179055565b6000828152602081905260409020600101546001600160a01b031633146101d457600080fd5b600082815260208181526040918290204384018082556001820180546001600160a01b031916339081179091558451908152928301869052828401819052925190917fe6a5d01fa9329c4d517e4311306e601e121d5cf6f4b214a4986bdd8714002e32919081900360600190a150505050565b600082815260208190526040902054158061026f575060008281526020819052604090205443115b6101d457600080fdfea265627a7a72315820e222d401c4e5ca123d2518f96a281edbad77a397d230b728aa218e272def3fab64736f6c63430005100032",
  "source": "// SPDX-License-Identifier: GPL-3.0\n \npragma solidity >=0.4.22 <0.8.0;\n/**\n * @title NameReg\n * @dev Name Registration contract to place a name against address for nameFee * numBlocks fee reservation.\n */\ncontract NameReg {\n    struct NameRegStruct {\n        uint expiry_block_number;\n        address account;\n    }\n    mapping(bytes32 => NameRegStruct) public names;\n    event NameRegistered(address voter, bytes32 name, uint expiry_block_number);\n    event NameRenewed(address voter, bytes32 name, uint expiry_block_number);\n    uint nameFeePerBlock;\n    constructor() public {\n        // Set the fee per block as 10\n        nameFeePerBlock = 10;\n    }\n    /**\n     * @dev Register name for numBlocks with a nameFee * numBlocks fee.\n     * @param _name name to attach to address.\n     * @param _numBlocks Number of blocks for which name should be freezed.\n     */\n    function register(bytes32 _name, uint _numBlocks) public {\n         // Add a check to see if name is available.\n         // Solidity has no concept of null.\n         // every integer starts as 0, every string starts a \"\", every array starts as []\n         require(names[_name].expiry_block_number == 0 || names[_name].expiry_block_number < block.number);\n         uint expiry_block_number = block.number + _numBlocks;\n         NameRegStruct storage new_name = names[_name];\n         new_name.expiry_block_number = expiry_block_number;\n         new_name.account = msg.sender;\n         emit NameRegistered(msg.sender, _name, expiry_block_number);\n    }\n    /**\n     * @dev Renew/Extend name for numBlocks with a nameFee * numBlocks fee for the sender.\n     * @param _name name to attach to address.\n     * @param _numBlocks Number of blocks for which name should be freezed.\n     */\n    function renew(bytes32 _name, uint _numBlocks) public  {\n        // Check if name belongs to sender\n        require(names[_name].account == msg.sender);\n        uint expiry_block_number = block.number + _numBlocks;\n        NameRegStruct storage new_name = names[_name];\n        new_name.expiry_block_number = expiry_block_number;\n        new_name.account = msg.sender;\n        emit NameRegistered(msg.sender, _name, expiry_block_number);\n    }\n    /**\n     * @dev Cancel the ownership of name.\n     * @param _name name which needs to be canceled\n     */\n    function cancel(bytes32 _name) public {\n        require(names[_name].account == msg.sender);\n        NameRegStruct storage new_name = names[_name];\n        new_name.expiry_block_number = 0;\n        new_name.account = msg.sender;\n    }\n    function getData(bytes32 _name) view public returns (uint, address) {\n        return (names[_name].expiry_block_number, names[_name].account);\n    }\n}",
  "sourcePath": "/Users/squbix/Desktop/OpenSource/eth-sample/contracts/NameReg.sol",
  "compiler": {
    "name": "solc",
    "version": "0.5.16+commit.9c3226ce.Emscripten.clang"
  },
  "schemaVersion": "3.3.3",
  "updatedAt": "2021-01-23T07:35:51.038Z",
  "networkType": "ethereum",
  "devdoc": {
    "details": "Name Registration contract to place a name against address for nameFee * numBlocks fee reservation.",
    "methods": {
      "cancel(bytes32)": {
        "details": "Cancel the ownership of name.",
        "params": {
          "_name": "name which needs to be canceled"
        }
      },
      "register(bytes32,uint256)": {
        "details": "Register name for numBlocks with a nameFee * numBlocks fee.",
        "params": {
          "_name": "name to attach to address.",
          "_numBlocks": "Number of blocks for which name should be freezed."
        }
      },
      "renew(bytes32,uint256)": {
        "details": "Renew/Extend name for numBlocks with a nameFee * numBlocks fee for the sender.",
        "params": {
          "_name": "name to attach to address.",
          "_numBlocks": "Number of blocks for which name should be freezed."
        }
      }
    },
    "title": "NameReg"
  },
  "userdoc": {
    "methods": {}
  }
}