{
  "contractName": "NameReg",
  "abi": [
    {
      "inputs": [],
      "payable": false,
      "stateMutability": "nonpayable",
      "type": "constructor"
    },
    {
      "anonymous": false,
      "inputs": [
        {
          "indexed": false,
          "internalType": "bytes32",
          "name": "name",
          "type": "bytes32"
        }
      ],
      "name": "NameCanceled",
      "type": "event"
    },
    {
      "anonymous": false,
      "inputs": [
        {
          "indexed": false,
          "internalType": "address",
          "name": "voter",
          "type": "address"
        },
        {
          "indexed": false,
          "internalType": "bytes32",
          "name": "name",
          "type": "bytes32"
        },
        {
          "indexed": false,
          "internalType": "uint256",
          "name": "expiry_block_number",
          "type": "uint256"
        }
      ],
      "name": "NameRegistered",
      "type": "event"
    },
    {
      "anonymous": false,
      "inputs": [
        {
          "indexed": false,
          "internalType": "address",
          "name": "voter",
          "type": "address"
        },
        {
          "indexed": false,
          "internalType": "bytes32",
          "name": "name",
          "type": "bytes32"
        },
        {
          "indexed": false,
          "internalType": "uint256",
          "name": "expiry_block_number",
          "type": "uint256"
        }
      ],
      "name": "NameRenewed",
      "type": "event"
    },
    {
      "constant": false,
      "inputs": [
        {
          "internalType": "bytes32",
          "name": "_name",
          "type": "bytes32"
        },
        {
          "internalType": "uint256",
          "name": "_numBlocks",
          "type": "uint256"
        }
      ],
      "name": "register",
      "outputs": [],
      "payable": true,
      "stateMutability": "payable",
      "type": "function"
    },
    {
      "constant": false,
      "inputs": [
        {
          "internalType": "bytes32",
          "name": "_name",
          "type": "bytes32"
        },
        {
          "internalType": "uint256",
          "name": "_numBlocks",
          "type": "uint256"
        }
      ],
      "name": "renew",
      "outputs": [],
      "payable": true,
      "stateMutability": "payable",
      "type": "function"
    },
    {
      "constant": false,
      "inputs": [
        {
          "internalType": "bytes32",
          "name": "_name",
          "type": "bytes32"
        }
      ],
      "name": "cancel",
      "outputs": [],
      "payable": false,
      "stateMutability": "nonpayable",
      "type": "function"
    },
    {
      "constant": true,
      "inputs": [],
      "name": "getAllNames",
      "outputs": [
        {
          "components": [
            {
              "internalType": "uint256",
              "name": "expiry_block_number",
              "type": "uint256"
            },
            {
              "internalType": "address",
              "name": "account",
              "type": "address"
            },
            {
              "internalType": "bytes32",
              "name": "name",
              "type": "bytes32"
            }
          ],
          "internalType": "struct NameReg.NameRegStruct[]",
          "name": "",
          "type": "tuple[]"
        }
      ],
      "payable": false,
      "stateMutability": "view",
      "type": "function"
    },
    {
      "constant": true,
      "inputs": [
        {
          "internalType": "uint256",
          "name": "_numBlocks",
          "type": "uint256"
        }
      ],
      "name": "getReservationFee",
      "outputs": [
        {
          "internalType": "uint256",
          "name": "",
          "type": "uint256"
        }
      ],
      "payable": false,
      "stateMutability": "view",
      "type": "function"
    }
  ],
  "bytecode": "0x608060405234801561001057600080fd5b50600a6003556107fd806100256000396000f3fe60806040526004361061004a5760003560e01c8063c4d252f51461004f578063eda963ea14610071578063f544d82f146100a7578063fb825e5f146100ba578063ff3617f8146100dc575b600080fd5b34801561005b57600080fd5b5061006f61006a3660046105a3565b6100ef565b005b34801561007d57600080fd5b5061009161008c3660046105a3565b6101bb565b60405161009e9190610747565b60405180910390f35b61006f6100b53660046105c9565b6101c6565b3480156100c657600080fd5b506100cf61029a565b60405161009e919061072f565b61006f6100ea3660046105c9565b6103a0565b6000818152602081905260409020600101546001600160a01b0316331461011557600080fd5b600061012082610484565b9050600019811361014c5760405162461bcd60e51b815260040161014390610755565b60405180910390fd5b610155816104ca565b506000828152602081905260408082208281556001810180546001600160a01b031916905560020191909155517f1f4c02a6e2c3648ca0ee5110c6103ea69945d80312ee5de436842924af700b85906101af908490610747565b60405180910390a15050565b60035481025b919050565b6000828152602081905260409020600101546001600160a01b031633146101ec57600080fd5b60035481023410156101fd57600080fd5b438082019081111561021c575060008281526020819052604090205481015b600083815260208181526040808320848155600180820180546001600160a01b0319163390811790915560028301899055808652935292819020805434019055517f34eaf2d2256d979762ccb9c8a934efb2ae22152848222b1cfcaf9b8c56ba3a009161028c9187908690610707565b60405180910390a150505050565b6060806002805490506040519080825280602002602001820160405280156102dc57816020015b6102c9610572565b8152602001906001900390816102c15790505b50905060005b60025481101561039a576000806000600284815481106102fe57fe5b90600052602060002001548152602001908152602001600020600001541115610392576000806002838154811061033157fe5b60009182526020808320909101548352828101939093526040918201902081516060810183528154815260018201546001600160a01b0316938101939093526002015490820152825183908390811061038657fe5b60200260200101819052505b6001016102e2565b50905090565b60008281526020819052604090205415806103c8575060008281526020819052604090205443115b6103d157600080fd5b60035481023410156103e257600080fd5b600082815260208181526040808320438501808255600180830180546001600160a01b0319163390811790915560028085018a905580548084019091557f405787fa12a823e0f2b7631cc41b3ba8828b3321ca811111fa75cd3aa3bb5ace01899055808752945293829020349055905190917fe6a5d01fa9329c4d517e4311306e601e121d5cf6f4b214a4986bdd8714002e329161028c919087908690610707565b6000805b6002548110156104c05782600282815481106104a057fe5b906000526020600020015414156104b85790506101c1565b600101610488565b5060001992915050565b60025460009082106104de575060026101c1565b815b6002546000190181101561052a57600281600101815481106104fe57fe5b90600052602060002001546002828154811061051657fe5b6000918252602090912001556001016104e0565b5060028054600019810190811061053d57fe5b6000918252602082200155600280548061055357fe5b6001900381819060005260206000200160009055905560029050919050565b604080516060810182526000808252602082018190529181019190915290565b803561059d816107a3565b92915050565b6000602082840312156105b557600080fd5b60006105c18484610592565b949350505050565b600080604083850312156105dc57600080fd5b60006105e88585610592565b92505060206105f985828601610592565b9150509250929050565b600061060f83836106ca565b505060600190565b61062081610792565b82525050565b61062081610778565b600061063a8261076b565b610644818561076f565b935061064f83610765565b8060005b8381101561067d5781516106678882610603565b975061067283610765565b925050600101610653565b509495945050505050565b61062081610783565b600061069e60178361076f565b7f4e616d65206e6f7420666f756e6420696e206172726179000000000000000000815260200192915050565b805160608301906106db8482610688565b5060208201516106ee6020850182610626565b5060408201516107016040850182610688565b50505050565b606081016107158286610617565b6107226020830185610688565b6105c16040830184610688565b60208082528101610740818461062f565b9392505050565b6020810161059d8284610688565b6020808252810161059d81610691565b60200190565b5190565b90815260200190565b600061059d82610786565b90565b6001600160a01b031690565b600061059d82600061059d82610778565b6107ac81610783565b81146107b757600080fd5b5056fea365627a7a7231582034482078e0b5f4e7e9eebe4bd802e871e9b1140a4ac22cf16c149b53bdaa65e46c6578706572696d656e74616cf564736f6c63430005100040",
  "source": "// SPDX-License-Identifier: GPL-3.0\n \npragma solidity >=0.4.22 <0.8.0;\npragma experimental ABIEncoderV2;\n/**\n * @title NameReg\n * @dev Name Registration contract to place a name against address for nameFee * numBlocks fee reservation.\n */\ncontract NameReg {\n    struct NameRegStruct {\n        uint expiry_block_number;\n        address account;\n        bytes32 name;\n    }\n    mapping(bytes32 => NameRegStruct) names;\n    mapping(address => uint256) balance;\n    bytes32[] nameArray;\n    uint nameFeePerBlock;\n    event NameRegistered(address voter, bytes32 name, uint expiry_block_number);\n    event NameRenewed(address voter, bytes32 name, uint expiry_block_number);\n    event NameCanceled(bytes32 name);\n    constructor() public {\n        // Make the deployer of the contract the administrator\n        nameFeePerBlock = 10;\n    }\n    /**\n     * @dev Register name for numBlocks with a nameFee * numBlocks fee.\n     * @param _name name to attach to address.\n     * @param _numBlocks Number of blocks for which name should be freezed.\n     */\n    function register(bytes32 _name, uint _numBlocks) public payable {\n         // Add a check to see if name is available.\n         // Solidity has no concept of null.\n         // every integer starts as 0, every string starts a \"\", every array starts as []\n         require(names[_name].expiry_block_number == 0 || names[_name].expiry_block_number < block.number);\n         require(msg.value >= _numBlocks * nameFeePerBlock);\n         uint expiry_block_number = block.number + _numBlocks;\n         NameRegStruct storage new_name = names[_name];\n         new_name.expiry_block_number = expiry_block_number;\n         new_name.account = msg.sender;\n         new_name.name = _name;\n         // TO help in getting entire name list.\n         nameArray.push(_name);\n         balance[msg.sender] = msg.value;\n         emit NameRegistered(msg.sender, _name, expiry_block_number);\n    }\n    /**\n     * @dev Renew/Extend name for numBlocks with a nameFee * numBlocks fee for the sender.\n     * @param _name name to attach to address.\n     * @param _numBlocks Number of blocks for which name should be freezed.\n     */\n    function renew(bytes32 _name, uint _numBlocks) public payable {\n        // Check if name belongs to sender\n        require(names[_name].account == msg.sender);\n        require(msg.value >= _numBlocks * nameFeePerBlock);\n        uint expiry_block_number = block.number + _numBlocks;\n        if (block.number < expiry_block_number) {\n            expiry_block_number = names[_name].expiry_block_number + _numBlocks;\n        }\n        NameRegStruct storage new_name = names[_name];\n        new_name.expiry_block_number = expiry_block_number;\n        new_name.account = msg.sender;\n        new_name.name = _name;\n        balance[msg.sender] += msg.value;\n        emit NameRenewed(msg.sender, _name, expiry_block_number);\n    }\n    /**\n     * @dev Cancel the ownership of name.\n     * @param _name name which needs to be canceled\n     */\n    function cancel(bytes32 _name) public {\n        require(names[_name].account == msg.sender);\n        int index = getNameIndex(_name);\n        require(index > -1, 'Name not found in array');\n        removeInOrder(uint(index));\n        delete names[_name];\n        emit NameCanceled(_name);\n    }\n    /**\n     * @dev Returns array of name details.\n     */\n    function getAllNames() public view returns (NameRegStruct[] memory){\n        NameRegStruct[] memory ret = new NameRegStruct[](nameArray.length);\n        for (uint i = 0; i < nameArray.length; i++) {\n            if(names[nameArray[i]].expiry_block_number > 0) {\n                ret[i] = names[nameArray[i]];\n            }\n        }\n        return ret;\n    }\n    \n    function getReservationFee(uint _numBlocks) public view returns (uint){\n        return nameFeePerBlock * _numBlocks;\n    } \n    function getNameIndex(bytes32 data) view internal returns (int){\n        for (uint i = 0; i < nameArray.length; i++) {\n            if(nameArray[i] == data) {\n                return int(i);\n            }\n        }\n        return -1;\n    }\n    function removeInOrder(uint index) internal returns(bytes32[] storage) {\n        if (index >= nameArray.length) return nameArray;\n\n        for (uint i = index; i<nameArray.length-1; i++){\n            nameArray[i] = nameArray[i+1];\n        }\n        delete nameArray[nameArray.length-1];\n        nameArray.pop();\n        return nameArray;\n    }\n}",
  "sourcePath": "/Users/squbix/Desktop/OpenSource/eth-sample/contracts/NameReg.sol",
  "compiler": {
    "name": "solc",
    "version": "0.5.16+commit.9c3226ce.Emscripten.clang"
  },
  "schemaVersion": "3.3.3",
  "updatedAt": "2021-01-23T17:25:05.755Z",
  "networkType": "ethereum",
  "devdoc": {
    "details": "Name Registration contract to place a name against address for nameFee * numBlocks fee reservation.",
    "methods": {
      "cancel(bytes32)": {
        "details": "Cancel the ownership of name.",
        "params": {
          "_name": "name which needs to be canceled"
        }
      },
      "getAllNames()": {
        "details": "Returns array of name details."
      },
      "register(bytes32,uint256)": {
        "details": "Register name for numBlocks with a nameFee * numBlocks fee.",
        "params": {
          "_name": "name to attach to address.",
          "_numBlocks": "Number of blocks for which name should be freezed."
        }
      },
      "renew(bytes32,uint256)": {
        "details": "Renew/Extend name for numBlocks with a nameFee * numBlocks fee for the sender.",
        "params": {
          "_name": "name to attach to address.",
          "_numBlocks": "Number of blocks for which name should be freezed."
        }
      }
    },
    "title": "NameReg"
  },
  "userdoc": {
    "methods": {}
  }
}